:100000000C9472000C949A000C949A000C949A0030
:100010000C949A000C949A000C949A000C949A00F8
:100020000C949A000C949A000C949A000C949A00E8
:100030000C949A000C949A000C949A000C949A00D8
:100040000C941F040C949A000C94ED030C94C703B9
:100050000C949A000C949A000C949A000C949A00B8
:100060000C949A000C949A000000000025002800CF
:100070002B0000000008000201000003040700003C
:1000800000000000000000000000240027002A00FB
:10009000010204081020408001020408102001021F
:1000A00004081020040404040404040402020202EC
:1000B0000202030303030303000102030405726148
:1000C00064696F206861726477617265206973206A
:1000D0006E6F7420726573706F6E64696E67212134
:1000E0000000690411241FBECFEFD8E0DEBFCDBFF2
:1000F00011E0A0E0B1E0E4ECFFE002C005900D9259
:10010000AA32B107D9F721E0AAE2B1E001C01D92FD
:10011000A73FB207E1F710E0C2E7D0E004C02197A3
:10012000FE010E94DA07C137D107C9F70E94BC045B
:100130000C94E0070C940000AF92BF92CF92DF9234
:10014000EF92FF920F931F93CF93DF936C017B018C
:100150008B01040F151FEB015E01AE18BF08C0171D
:10016000D10759F06991D601ED91FC910190F08190
:10017000E02DC6010995892B79F7C501DF91CF9153
:100180001F910F91FF90EF90DF90CF90BF90AF90B5
:100190000895FC01538D448D252F30E0842F90E08D
:1001A000821B930B541710F0CF9608950197089572
:1001B000FC01918D828D981761F0A28DAE0FBF2F3B
:1001C000B11D5D968C91928D9F5F9F73928F90E091
:1001D00008958FEF9FEF0895FC01918D828D981700
:1001E00031F0828DE80FF11D858D90E008958FEF3D
:1001F0009FEF0895FC01918D228D892F90E0805C06
:100200009F4F821B91098F73992708958AE391E08C
:100210000E94FA0021E0892B09F420E0822F089542
:1002200080E090E0892B29F00E94060181110C9456
:1002300000000895FC01A48DA80FB92FB11DA35A89
:10024000BF4F2C91848D90E001968F739927848FF6
:10025000A689B7892C93A089B1898C918370806419
:100260008C93938D848D981306C00288F389E02DBA
:1002700080818F7D80830895EF92FF920F931F936B
:10028000CF93DF93EC0181E0888F9B8D8C8D981349
:100290001AC0E889F989808185FF15C09FB7F89455
:1002A000EE89FF896083E889F989808183708064A1
:1002B00080839FBF81E090E0DF91CF911F910F91EC
:1002C000FF90EF900895F62E0B8D10E00F5F1F4FFB
:1002D0000F731127E02E8C8D8E110CC00FB607FC0A
:1002E000FACFE889F989808185FFF5CFCE010E9498
:1002F0001A01F1CFEB8DEC0FFD2FF11DE35AFF4FEB
:10030000F0829FB7F8940B8FEA89FB898081806225
:10031000CFCFCF93DF93EC01888D8823B9F0AA89E2
:10032000BB89E889F9898C9185FD03C0808186FDB0
:100330000DC00FB607FCF7CF8C9185FFF2CF8081FF
:1003400085FFEDCFCE010E941A01E9CFDF91CF9159
:10035000089590E0FC01EE58FF4F2491FC01E05716
:10036000FF4F3491FC01EC55FF4FE491EE23C9F0AF
:10037000222339F0233001F1A8F4213019F1223081
:1003800029F1F0E0EE0FFF1FE859FF4FA591B4915E
:100390008FB7F894EC91611126C030953E233C93C1
:1003A0008FBF08952730A9F02830C9F0243049F7CD
:1003B000809180008F7D03C0809180008F77809333
:1003C0008000DFCF84B58F7784BDDBCF84B58F7D90
:1003D000FBCF8091B0008F778093B000D2CF809117
:1003E000B0008F7DF9CF3E2BDACF682F8091DC01F2
:1003F0000E94A9018091F3019091F401823091054E
:1004000038F0880F991F880F991F05970197F1F70A
:10041000089581E00C94F5012091DA013091DB011F
:100420004091DC015091DD012417350721F0682F40
:10043000822F0C94A9010895CF93DF9390E0FC01E3
:10044000E057FF4F24918C559F4FFC0184918823E6
:10045000D1F090E0880F991FFC01EA57FF4FA5915A
:10046000B491FC01E859FF4FC591D49161110EC0C0
:100470009FB7F8948C91E22FE0958E238C9328817E
:10048000E223E8839FBFDF91CF9108958FB7F8945F
:10049000EC91E22BEC938FBFF6CF8E50806480936B
:1004A0007C0080917A00806480937A0080917A0049
:1004B00086FDFCCF809178009091790008953FB738
:1004C000F89480912B0190912C01A0912D01B09175
:1004D0002E0126B5A89B05C02F3F19F00196A11D3E
:1004E000B11D3FBFBA2FA92F982F8827BC01CD017E
:1004F000620F711D811D911D42E0660F771F881FDD
:10050000991F4A95D1F708958F929F92AF92BF920B
:10051000CF92DF92EF92FF924B015C010E945F024B
:100520006B017C010E945F026C197D098E099F0995
:10053000683E734081059105A8F321E0821A910875
:10054000A108B10888EEC80E83E0D81EE11CF11C9A
:1005500081149104A104B10429F7FF90EF90DF907A
:10056000CF90BF90AF909F908F9008958EBD000068
:100570000DB407FEFDCF8EB508950F931F93009124
:10058000DE011091DF012091E0013091E10140E0B6
:1005900052E16AE770E080E0041715072607370785
:1005A00040F476956795579547958F5F8630A1F70C
:1005B00087E0982F906A9695809581709CBD8DBD3F
:1005C00080E01F910F910C94F501CF93C82F0E94EA
:1005D000BD028C2F80620E94B6028093E201CF910F
:1005E0000C940902CF93C82F0E94BD028C2F0E9449
:1005F000B6028093E2018FEF0E94B602C82F0E94DC
:1006000009028C2FCF9108950F931F93CF93182F2A
:10061000C62F0E94BD02812F80620E94B602809385
:10062000E20100E011E0C15030F0F80181918F014A
:100630000E94B602F8CFCF911F910F910C9409023E
:100640000E94BD0280E50E94B6028093E20183E72A
:100650000E94B6020C940902CF93DF93D82FC62FC5
:100660000E94BD028D2F80620E94B6028093E2013B
:100670008C2F0E94B602DF91CF910C940902FC01ED
:1006800001900020E9F73197AF01481B590BBC01DD
:100690008AE391E00C949C008F929F92AF92BF925C
:1006A000CF92DF92EF92FF920F931F93CF93DF933E
:1006B000CDB7DEB7A1970FB6F894DEBF0FBECDBFA2
:1006C0006B017C01F7FE41C06DE28AE391E00E947C
:1006D0003C018C0122273327A9012C193D094E0921
:1006E0005F0919A2CE0181967C019AE0892E912C96
:1006F000A12CB12CCA01B901A50194010E949A074D
:10070000605DF70162937F012115310541055105B7
:1007100089F790E080E0309719F0CF010E943F0305
:10072000800F911FA1960FB6F894DEBF0FBECDBF0C
:10073000DF91CF911F910F91FF90EF90DF90CF90BD
:10074000BF90AF909F908F900895AC019B0119A22C
:100750008E010F5D1F4F8AE0C82ED12CE12CF12CA9
:10076000CA01B901A70196010E949A07605DF801CC
:1007700062938F01211531054105510589F790E0FC
:1007800080E0309779F2CF010E943F03CBCF1F92D8
:100790000F920FB60F9211242F933F934F935F93B5
:1007A0006F937F938F939F93AF93BF93EF93FF9339
:1007B0008AE391E00E941A01FF91EF91BF91AF91FE
:1007C0009F918F917F916F915F914F913F912F9169
:1007D0000F900FBE0F901F9018951F920F920FB69B
:1007E0000F9211242F938F939F93EF93FF93E09198
:1007F0004A01F0914B018081E0915001F09151014B
:1008000082FD1BC09081809153018F5F8F73209177
:100810005401821741F0E0915301F0E0E65CFE4F95
:10082000958F80935301FF91EF919F918F912F911D
:100830000F900FBE0F901F9018958081F4CF1F92DC
:100840000F920FB60F9211242F933F938F939F9384
:10085000AF93BF938091300190913101A09132010B
:10086000B091330130912A0123E0230F2D3758F541
:100870000196A11DB11D20932A0180933001909310
:100880003101A0933201B093330180912B019091FB
:100890002C01A0912D01B0912E010196A11DB11D39
:1008A00080932B0190932C01A0932D01B0932E01E6
:1008B000BF91AF919F918F913F912F910F900FBE5C
:1008C0000F901F90189526E8230F0296A11DB11DC9
:1008D000D2CFEAE3F1E01382128288EE93E0A0E047
:1008E000B0E084839583A683B7838AE091E0918307
:1008F000808385EC90E09587848784EC90E09787EF
:10090000868780EC90E0918B808B81EC90E0938BDC
:10091000828B82EC90E0958B848B86EC90E0978BB9
:10092000868B118E128E138E148EE8EDF1E089E025
:1009300090E09383828388E090E09583848380E8CD
:1009400096E9A8E9B0E086839783A087B18780E223
:10095000838781E0848785E0838B158A85E090E03A
:10096000A0E0B0E0838F948FA58FB68F87ED91E0E4
:100970009183808316860895789484B5826084BDBF
:1009800084B5816084BD85B5826085BD85B5816093
:1009900085BD80916E00816080936E001092810011
:1009A00080918100826080938100809181008160CC
:1009B000809381008091800081608093800080918D
:1009C000B10084608093B1008091B0008160809319
:1009D000B00080917A00846080937A0080917A00E0
:1009E000826080937A0080917A00816080937A009F
:1009F00080917A00806880937A001092C100E09123
:100A00004A01F0914B0182E08083E0914601F09130
:100A100047011082E0914801F091490180E1808313
:100A200010925201E0914E01F0914F0186E08083D7
:100A3000E0914C01F0914D01808180618083E091D3
:100A40004C01F0914D01808188608083E0914C01E0
:100A5000F0914D01808180688083E0914C01F0919C
:100A60004D0180818F7D808388E191E00E943F036A
:100A700084E291E00E943F0360E080E10E941C025A
:100A800060E08EE00E941C0260E08FE00E941C0289
:100A9000CFB7F89480912F01811127C0EEEAF0E0E2
:100AA0008491EAE9F0E09491E82FF0E0EE0FFF1F67
:100AB000EA57FF4FA591B491EC91E92321F461E04D
:100AC0008AE00E94A90161E08AE00E941C028CB5C4
:100AD00080618CBD8CB580648CBD61E08DE00E942E
:100AE0001C0261E08BE00E941C0280912F018F5F4D
:100AF00080932F01CFBF8091DA019091DB018F3F6E
:100B0000980709F44DC12091DC013091DD012F3FA0
:100B1000320709F445C18217930741F061E00E9452
:100B20001C0261E08091DC010E941C0280E00E94B6
:100B30000C0281E00E94F50165E070E080E090E049
:100B40000E9484026FE584E00E942C0386E00E94EC
:100B5000F20245E550E060E070E04093EF01509311
:100B6000F0016093F1017093F201682F677D86E0D8
:100B70000E942C0386E00E94F2028DE10E94F202A4
:100B8000C82F0E9420038DE10E94F20291E0C81359
:100B900090E09093ED01882341F0C81302C00E94B9
:100BA000200360E08DE10E942C031092E50160E0DB
:100BB0008CE10E942C031092E4016FE381E00E941B
:100BC0002C0363E082E00E942C0380E28093E30127
:100BD000C1E16091E3018C2F0E942C03CF5FC731EC
:100BE000C1F763E083E00E942C0385E08093EB0172
:100BF0006CE40E942C0360E787E00E942C0382EEE5
:100C00000E94E50281EE0E94E5026CE080E00E9415
:100C10002C0380E00E94F2028093EC0181FD0BC066
:100C2000682F62606093EC0180E00E942C038BE1EE
:100C30009EE40197F1F78091EC018E3009F0B0C08D
:100C40006091EB018AE00E9404036091EB0180E176
:100C50000E94040380E00E940C028091EF019091B9
:100C6000F0018230910508F0ADC08091E501882344
:100C700019F081EE0E94E5026091EC016E7F6093B5
:100C8000EC0180E00E942C0382E00E94F202E8EB7B
:100C9000F0E0E49161E070E001C0660FEA95EAF7E8
:100CA000682B82E00E942C03CC24CA9423E0D22E2D
:100CB000E12CF12C882483943CEF932EAA24AA944F
:100CC000BA2C00E010E080E10E944D0290933501C3
:100CD000809334018EE00E944D02909337018093FF
:100CE00036018FE00E944D02EC01209134013091D9
:100CF0003501A1E0BFEF0E94CB07A70196010E943A
:100D0000700721503F4F4F4F5F4F30933501209375
:100D100034012091360130913701032E000C440B31
:100D2000550B2F5F334041095109AFEFB0E00E94EE
:100D30008F07A50194010E9470073093370120931B
:100D400036019E01A1E0BFEF0E94CB07A7019601EB
:100D50000E94700721503F4F4F4F5F4F3093390132
:100D6000209338018091E401811134C08091E30126
:100D7000682E873010F096E0692E782E76180E9443
:100D8000BD0280EA0E94B6028093E201C4E3D1E092
:100D90006A94FFEF6F1611F189910E94B602F8CFA5
:100DA000CEEBD0E0FE016491662339F08AE391E056
:100DB0000E943C012196892BA9F784E291E00E94D0
:100DC0003F03FFCF880F991F880F991F0597019741
:100DD000F1F74BCF712C86E0682ED1CF7A942FEFAC
:100DE000721621F080E00E94B602F8CF0E9409023C
:100DF00081E00E940C028FB7F8944090300150902F
:100E0000310160903201709033018FBF8FEF0E94EB
:100E1000E5028091E201807309F053C02FB7F89486
:100E20008091300190913101A0913201B091330154
:100E30002FBF84199509A609B70980369105A10528
:100E4000B10520F381E08093EE016091340170914F
:100E50003501072E000C880B990B0E944C0387E28A
:100E600091E00E943F036091360170913701072E97
:100E7000000C880B990B0E944C0387E291E00E94C2
:100E80003F036091380170913901072E000C880BE7
:100E9000990B0E944C0384E291E00E943F0362E3BD
:100EA00070E080E090E00E9484020115110509F4D1
:100EB0000ACF0E940601882309F405CF0E94000092
:100EC00002CF80E00E940C0260E787E00E942C03C2
:100ED0008091E20184FFB9CF81EE0E94E502B5CF97
:100EE000052E97FB1EF400940E94870757FD07D03C
:100EF0000E949A0707FC03D04EF40C948707509584
:100F00004095309521953F4F4F4F5F4F08959095F5
:100F10008095709561957F4F8F4F9F4F08950E94E8
:100F2000BC07A59F900DB49F900DA49F800D911DAF
:100F300011240895A1E21A2EAA1BBB1BFD010DC0AE
:100F4000AA1FBB1FEE1FFF1FA217B307E407F50779
:100F500020F0A21BB30BE40BF50B661F771F881F55
:100F6000991F1A9469F760957095809590959B01EB
:100F7000AC01BD01CF010895A29FB001B39FC00194
:100F8000A39F700D811D1124911DB29F700D811DB5
:100F90001124911D08950E94BC07332312F48A1B6B
:100FA0009B0B0C94D5070E94BC07B7FF0895821BCA
:100FB000930B0895EE0FFF1F0590F491E02D099417
:040FC000F894FFCFD3
:100FC400303030303400000000003C019C00C90087
:100FD4008901FA00D800EC005452414E534D495453
:0A0FE400544552000D0A00090000F8
:00000001FF
